:020000040000FA
:1000000003138316803086008030870088018312B6
:10001000860187018801A101A201013086008700C5
:100020007C20A301861B122865202008A300871BC3
:1000300017286E2023082002031C2128031D2428D2
:100040001128861F27282128871F4028242865205B
:100050000321A10A21085D20860006302102031831
:100060003628A00B2828861A592824280530A100F4
:100070000321A10321085D208600A00B3828242835
:100080006E200321A20A22085D208700063022028A
:1000900003184F28A00B4128871A5B282128053018
:1000A000A2000321A20322085D208700A00B512893
:1000B0002128061763000717630082070134023402
:1000C00004340834103420342034861B7628D92098
:1000D000861B76287720861F65287628871B76283A
:1000E000D120871B76287720871F6E280800A00A5A
:1000F00007302002031C7E280130A0002008832046
:100100008800013008000F39303EA400203C03195C
:1001100000342408D13C031955342408BA3C03198F
:10012000633424085A3C031C80342B302402031C03
:1001300080348207463404344034803400343F3401
:1001400006345B344F3466346D347D3407347F3489
:100150006734413488340034483400340034003487
:1001600077347C3439345E34793471346F34763496
:1001700019341E347A343834373454343F347334B9
:10018000673450346D3478341C343E341D3470344C
:100190006E34493400000000000000000000000040
:1001A00008000000A430DD2800004030DD281F30AA
:1001B000DD2800000E30DD280530A500A50BDE2867
:1001C0000800C830F0286430F0283230F0281430AD
:1001D000F0280A30F0280530F0280230F0280130ED
:1001E000A600F930A5000000A50BF328A60BF12806
:1001F0000800C8300429643004293230042914303E
:1002000004290A3004290530A7006430A600F9301B
:10021000A5000000A50B0929A60B0729A70B052996
:020220000800D4
:02400E00F13F80
:00000001FF
